:020000040800F2
:10000000701B00207D020008E57F0008E77F0008E4
:10001000EB7F0008EF7F0008F37F0008000000007E
:10002000000000000000000000000000F77F000852
:10003000F97F000800000000FB7F0008FD7F00083A
:10004000970200089702000897020008970200082C
:10005000970200089702000897020008970200081C
:100060009702000897020008296300089702000819
:100070009702000897020008812A000897020008EA
:10008000C92F00089702000897020008970200088D
:1000900097020008970200089702000897020008DC
:1000A00097020008970200089702000897020008CC
:1000B00097020008970200089702000897020008BC
:1000C00097020008970200089702000897020008AC
:1000D000970200089702000897020008A12A00086A
:1000E000970200089702000897020008970200088C
:1000F000970200089702000897020008970200087C
:10010000970200089702000897020008970200086B
:1001100097020008617F0008970200089702000814
:10012000970200089702000897020008970200084B
:10013000970200089702000897020008970200083B
:10014000970200089702000897020008970200082B
:10015000970200089702000897020008970200081B
:10016000970200089702000897020008970200080B
:1001700097020008970200089702000897020008FB
:100180009702000897020008DFF80CD008F06CFA1C
:1001900000480047C97F0008701B00203249014316
:1001A000324A1160704770B5002100230F22C478D5
:1001B0001CB32E4C246804F4E064C4F5E064C4F37A
:1001C0000721C1F10404E3B20A4144789C40E1B242
:1001D0008478144021430C07210E254C0578615585
:1001E000047804F01F050124AC4005786D11AD00C2
:1001F00005F1E025C5F8004109E0047804F01F0589
:100200000124AC401B4D0678761145F8264070BDA0
:10021000194A0A400243154B1B1F1A60704739B137
:10022000124A121D12680243104B1B1D1A6006E091
:100230000E4A121D126882430C4B1B1D1A60704738
:10024000042808D14FF0E021096941F004014FF082
:10025000E022116107E04FF0E021096921F004017B
:100260004FF0E022116170470000FA050CED00E04C
:1002700000E400E080E100E080FFFF1F06488047C7
:1002800006480047FEE7FEE7FEE7FEE7FEE7FEE77B
:10029000FEE7FEE7FEE7FEE72D26000889010008DD
:1002A000016821F00101016000210160416081606D
:1002B000C160016121214161DB49884204D13D21B6
:1002C000D94A103A91608CE0D7491831884205D15B
:1002D0004FF47461D44A103A916082E0D2493031CF
:1002E000884205D14FF47411CF4A103A916078E0FA
:1002F000CD494831884205D14FF07461CA4A103A5D
:1003000091606EE0C8496031884204D1C749C64A4D
:10031000103AD16065E0C4497831884204D1C449BB
:10032000C14A103AD1605CE0BF499031884204D1A3
:10033000C049BD4A103AD16053E0BB49A831884258
:1003400005D14FF03D51B84A103AD16049E0BA4961
:10035000884204D13D21B84A083A116041E0B649CB
:100360001831884205D14FF47461B34A083A1160DC
:1003700037E0B1493031884205D14FF47411AE4AAB
:10038000083A11602DE0AC494831884205D14FF060
:100390007461A94A083A116023E0A7496031884294
:1003A00004D1A249A44A121F11601AE0A24978316F
:1003B000884204D19E49A04A121F116011E09E4953
:1003C0009031884204D19B499B4A121F116008E07A
:1003D0009949A831884204D14FF03D51964A121FE5
:1003E0001160704710B500220268944B1A40CC6827
:1003F0000B6823434C6923438C692343CC69234313
:100400000C6A23434C6A23438C6A23434C6B23437B
:100410008C6B23431A430260426922F00702D1E940
:100420000B3423431A4342610B6943604B6883607A
:100430008B68C36010BD0021016041608160C160B4
:10044000016141618161C161016241628162C16298
:10045000016341638163704721B1026842F0010288
:10046000026003E0026822F001020260704721B1DD
:10047000026842F40042026003E0026822F4004293
:100480000260704721B1026842F02002026003E07E
:10049000026822F020020260704741607047014606
:1004A000486880B2704722B1036843F400230360B8
:1004B00003E0036823F4002303600161704721B166
:1004C000026842F48022026003E0026822F4802283
:1004D000026070470AB1016100E0C16070470146E7
:1004E00000200A6802F400220AB1012000E0002086
:1004F0007047014600200A6802F001020AB101209B
:1005000000E000207047014600204A6902F03800F0
:10051000704730B503460A4600200024464DAB42E2
:1005200002D24149103901E04349103902F0005527
:100530000DB14C6800E00C68414D2C4004EA020506
:100540000DB1012000E0002030BD02463A4B9A4236
:1005500002D23548103801E03748103801F0005316
:100560001BB1374B0B40C36002E0354B0B4083603F
:10057000704710B501F080034BB122B1436943F0DD
:100580008003436103E0436923F0800343618029D2
:100590000BD02AB1036801F01E042343036004E07A
:1005A000036801F01E04A343036010BD70B502464A
:1005B000002000240025204EB24202D21A4B103BEC
:1005C00001E01D4B103B1F4E0E4036B11E2606EAC1
:1005D000D124166806EA040502E0566906F0800593
:1005E00001F000560EB15C6800E01C68144E344007
:1005F00004EA010616B10DB1012000E0002070BD33
:1006000002460D4B9A4202D20748103801E00A48D0
:10061000103801F000531BB1094B0B40C36002E0DE
:10062000074B0B4083607047106002403D00002084
:10063000400F002000003D20106402403F801CF06D
:100640007D0F7D0F3C0F3C0F002044490860091DC1
:100650000860091D0860091D086041483F491431C0
:100660000860704700213D498279002A3AD00A4645
:10067000126803689A430B461A600A1D12680368E1
:100680009A430B1D1A60027911440A6803681A43E1
:100690000A60324A0832126803689A432F4B0833C3
:1006A0001A601A1D126803689A432C4B0C331A60A7
:1006B0004279102A0ED11A1F126803681A43274B79
:1006C00008331A601A1D126803681A43234B0C334F
:1006D0001A600DE02149427911440A6803681A43FF
:1006E0000A6005E0027911440A6803689A430A60C7
:1006F00070470021016001710C214171002181715D
:1007000070471649103109680143144A10321160CC
:10071000704701460020114A143212680A400AB19B
:10072000012000E0002070470C4914310860704738
:10073000014600200022094B1B6803EA0102074B17
:1007400014331B680B4013B10AB1012000E00020F4
:10075000704702491431086070470000003C0140B6
:10076000FFFF7F00FE4A1070704730B1FC490968F6
:1007700041F48071FA4A116005E0F949096821F4F1
:100780008071F74A1160704730B1F549096841F44A
:100790000071F34A116005E0F149096821F4007124
:1007A000EF4A1160704730B1ED49096841F480614A
:1007B000EB4A116005E0EA49096821F48061E84AE2
:1007C00011607047E648006840F40060E449086042
:1007D0007047E348006840F48050E1490860704782
:1007E000DF481030006800F0004028B1DD48DC49E7
:1007F000091D0860DC4808607047D948103000685F
:1008000040F00040D6491031086070470820D449B4
:100810000C31096801F48031B1F5803F01D101202C
:1008200018E0CF490C31096801F0100109B1052029
:1008300010E0CB490C31096801F0EF0109B1062045
:1008400008E0C7490C31096801F0020109B107202D
:1008500000E00820704708B508200090FFF7D6FF99
:10086000009002E0FFF7D2FF00909DF80000012801
:10087000F8D09DF8000008BD70B504460A46002671
:10088000082502B909E0012A01D1160205E0022A71
:1008900001D1160201E04FF44076FFF7DCFF054678
:1008A000082D2DD1AE481030006820F44070AC49BE
:1008B0001031086008460068304308600846006848
:1008C00020F0F80008600846006844F00201084380
:1008D000A349103108600846006840F48030086081
:1008E000FFF7B9FF05469E481030006820F002006F
:1008F0009B49103108600846006820F0F800086045
:10090000284670BD30B5024600250824FFF7A3FF36
:10091000044602B909E0012A01D1150205E0022AC4
:1009200001D1150201E04FF44075082C20D18C480C
:100930001030006820F44070894910310860084682
:100940000068284308600846006840F0040008601A
:100950000846006840F480300860FFF77CFF0446DA
:100960007F481030006820F004007D491031086095
:10097000204630BD70B5064614461D460822FFF7D6
:100980006AFF0246082A1ED175481030006820F41C
:1009900040707349103108600846006840F44070A8
:1009A00008600846006840F0010008603460756027
:1009B000FFF751FF02466A481030006820F001003E
:1009C000674910310860104670BD30B502460C46CC
:1009D0000825FFF740FF0546082D1DD1604810305F
:1009E000006820F440705E491031086008460068D5
:1009F00040F4007008600846006840F0010008609C
:100A00001460FFF728FF054655481030006820F0B5
:100A10000100534910310860284630BD30B5024608
:100A20000C460825FFF717FF0546082D1DD14C4839
:100A30001030006820F440704949103108600846C1
:100A4000006840F4807008600846006840F00100CB
:100A500008601480FFF7FFFE05464148103000682B
:100A600020F001003E4910310860284630BD30B505
:100A700002460C460825FFF7EEFE0546082D1BD161
:100A800037481030006820F4407035491031086054
:100A90000846006808600846006840F001000860E9
:100AA0001470FFF7D8FE05462D481030006820F07E
:100AB00001002B4910310860284630BD2848143009
:100AC000006800F0010028B1284825490831086075
:100AD00027480860704722481430006840F0010041
:100AE0001F4914310860704730B502460C4608258E
:100AF000FFF7B1FE0546082D10D13CB1184816305D
:100B00000088904316491631088007E014481630D3
:100B1000008891B2084312491631088030BD10B5E3
:100B200002460824FFF797FE0446082C02D10C4821
:100B30001530027010BDF0B504460D46FF2608279B
:100B4000FFF789FE0746082F16D1054814300078B4
:100B500000F00F0645EA060010432043004909E073
:100B6000003C024023016745AB89EFCD3B2A1908C1
:100B70007F6E5D4C14310870F0BD2849097821F072
:100B80000C01264A11701146097801431170704713
:100B900000B508222148007840F002001F49087083
:100BA000FFF759FE0246104600BD1C480068C0F31E
:100BB000471070471948801C00887047002017496B
:100BC000491C0978AA2901D0012000E000207047C3
:100BD0001248007800F00C00704739B10F4A121F1C
:100BE000126802430D4B1B1F1A6006E00B4A121FCE
:100BF00012688243094B1B1F1A6070470146002090
:100C0000064A083A12680A400AB1012000E00020B2
:100C1000704702490839086070470000143C0240E0
:100C200010B504468C48844208D10121084600F0E2
:100C300000FB0021012000F0FCFA5EE087488442BE
:100C400008D10121022000F0F4FA0021022000F076
:100C5000F0FA52E08248844208D10121042000F0D9
:100C6000E8FA0021042000F0E4FA46E07D488442DE
:100C700008D10121082000F0DCFA0021082000F052
:100C8000D8FA3AE07848844208D10121102000F0D7
:100C9000D0FA0021102000F0CCFA2EE073488442F4
:100CA00008D10121202000F0C4FA0021202000F00A
:100CB000C0FA22E06E48844208D10121402000F0B1
:100CC000B8FA0021402000F0B4FA16E069488442E6
:100CD00008D10121802000F0ACFA0021802000F032
:100CE000A8FA0AE06448844207D10121801500F087
:100CF000A0FA0021A01500F09CFA10BDF0B50A463C
:100D000000210023002400BF3DE0012505FA01F386
:100D1000156805EA03049C4234D105684F00032698
:100D2000BE40B543056015794E00B54006683543B1
:100D300005601579012D02D01579022D16D185682F
:100D40004F000326BE40B543856055794E00B5403F
:100D5000866835438560456801268E40B543456009
:100D6000456896798E40B6B235434560C5684F00F8
:100D70000326BE40B543C560D5794E00B540C66870
:100D80003543C560491C1029BFD3F0BD4FF6FF7134
:100D900001600021017141718171C171704708B515
:100DA0004FF480320092009A0A430092009AC26186
:100DB000C161009AC261C2690092C269009208BD15
:100DC0000246002013690B400BB1012000E0002017
:100DD00070470146086980B2704702460020536997
:100DE0000B400BB1012000E000207047014648692C
:100DF00080B2704701837047418370470AB1018315
:100E000000E0418370474161704742694A40426156
:100E10007047F0B5002300244D07ED0E02FA05F3EC
:100E2000CE1000F1200555F826504E07F70E0F267C
:100E3000BE40B543CF1000F1200646F82750CE1033
:100E400000F1200555F8265045EA0304CE1000F1C4
:100E5000200545F82640F0BD000002400004024095
:100E600000080240000C0240001002400014024042
:100E700000180240001C024000200240FA480068AE
:100E800040F00100F84908600020F7490831086087
:100E9000F5480068F5490840F3490860F448091D21
:100EA0000860081F006820F48020091F08600020E7
:100EB000ED490C31086070470021EB4A921C11701B
:100EC00011460870704710B501460022002300202B
:100ED0004A11012A02D1E44C236808E0022A03D116
:100EE000E14C7034236802E0DF4C7434236801F075
:100EF0001F02012494401C400CB1012000E000209E
:100F000010BD38B5002000900024002500BF31201E
:100F1000FFF7D9FF05460098401C00900098B0F5F7
:100F2000A06F01D0002DF2D03120FFF7CCFF08B127
:100F3000012400E00024204638BD01460020CA4AB2
:100F4000106820F0F80040EAC10010607047C949FD
:100F5000086070470021C44A703211701170012876
:100F600002D004280AD104E00121BF4A7032117076
:100F700005E00521BC4A7032117000E000BF00BFDF
:100F80007047BD490860704770B5049C41EA8215FE
:100F90000126C6EB530645EA0645054345EA0465C6
:100FA000B14E361D356070BDB2490866704782018A
:100FB00042EA0172AC4B84331A607047AD498866CF
:100FC0007047AC49C864704702460020A64B0833FE
:100FD000186820F0EC6042EA01031843A24B083382
:100FE00018607047024600209F4B0833186820F0B5
:100FF000784042EA010318439B4B0833186070475E
:1010000001460020984A0832106820F00300084387
:101010001060704794480830006800F00C0070477A
:1010200001460020904A0832106820F0F000084382
:1010300010607047014600208B4A0832106820F487
:10104000E05008431060704701460020864A08328D
:10105000106820F4604040EAC10010607047F0B5AD
:101060000021002200240225002602237E4F08379B
:101070003F6807F00C0121B1042905D0082937D1B8
:1010800005E07E4F076036E07D4F076033E0764F26
:101090003F1D3F68C7F38056734F3F1D3F6807F001
:1010A0003F036EB1764FB7FBF3F7DFF8BCC10CF12D
:1010B000040CDCF800C0CCF3881C07FB0CF40CE03B
:1010C0006E4FB7FBF3F7DFF8A0C10CF1040CDCF8AE
:1010D00000C0CCF3881C07FB0CF4634F3F1D3F6836
:1010E000C7F301477F1C7D00B4FBF5F7076002E002
:1010F000624F076000BF00BF5B4F08373F6807F0D3
:10110000F00109095F4F7A5C0768D7404760564F86
:1011100008373F6807F4E051890A5A4F7A5C4768FC
:10112000D7408760504F08373F6807F46041490B4C
:10113000544F7A5C4768D740C760F0BD002100F487
:101140004072B2F5407F0AD1474A0832116821F453
:10115000F8114D4A02401143434A08321160424A95
:1011600070321268C0F30B031A433F4B70331A609E
:10117000704741494439086070473F494039086029
:10118000704742490860704739B1374A30321268B7
:101190000243354B30331A6006E0334A303212686E
:1011A0008243314B30331A60704739B12E4A3432A2
:1011B000126802432C4B34331A6006E02A4A343258
:1011C00012688243284B34331A60704739B1264A7B
:1011D000383212680243244B38331A6006E0224A40
:1011E000383212688243204B38331A60704739B165
:1011F0001D4A4032126802431B4B40331A6006E01E
:10120000194A403212688243174B40331A607047C4
:1012100039B1154A443212680243134B44331A6001
:1012200006E0114A4432126882430F4B44331A607D
:10123000704739B10C4A1032126802430A4B10331E
:101240001A6006E0084A103212688243064B1033D7
:101250001A607047E1B1044A143212680243024B2B
:1012600014331A6019E0000000380240FFFFF6FE58
:101270001030002400004742800E47420024F40052
:1012800040787D0100000020FFFCFF0F5C01474219
:101290005B4A126882435A4B1A60704739B1584A08
:1012A000121D12680243564B1B1D1A6006E0544A79
:1012B000121D12688243524B1B1D1A60704739B1D0
:1012C0004F4A0C32126802434D4B0C331A6006E051
:1012D0004B4A0C3212688243494B0C331A607047F8
:1012E00039B1474A103212680243454B10331A6035
:1012F00006E0434A103212688243414B10331A60B1
:10130000704739B13E4A3C32126802433C4B3C3391
:101310001A6006E03A4A3C3212688243384B3C334A
:101320001A60704739B1364A403212680243344B72
:1013300040331A6006E0324A403212688243304B32
:1013400040331A60704739B12D4A44321268024363
:101350002B4B44331A6006E0294A44321268824318
:10136000274B44331A60704739B1254A4C32126812
:101370000243234B4C331A6006E0214A4C32126878
:1013800082431F4B4C331A60704739B11C4A5032AC
:10139000126802431A4B50331A6006E0184A503262
:1013A00012688243164B50331A60704739B1144AA1
:1013B000D21F12780243124BDB1F1A7006E0104A4C
:1013C000D21F127882430E4BDB1F1A7070470C48F5
:1013D0006030006840F080700949603108607047F3
:1013E00001460020064A083A12680A400AB1012064
:1013F00000E0002070470249891F08707047000014
:101400001438024010B501218803FFF769FF00215D
:101410004FF48040FFF764FF10BD1A490860704721
:1014200030B500228B071C0F0F2303FA04F2154B73
:1014300008338C1053F824309343124C08348D1029
:1014400044F8253023468C1053F824308C07240FA1
:1014500000FA04F423430B4C08348D1044F8253073
:1014600030BD09490860704708490860704700208E
:1014700004492031096801F4807109B1012000E0BC
:101480000020704700380140DC002742000427425A
:1014900010B50446FE48844208D101210846FFF7F2
:1014A0001FFF00210120FFF71BFF9DE0B4F1804FDB
:1014B00008D101210846FFF702FF00210120FFF7B4
:1014C000FEFE91E0F348844208D101210220FFF79B
:1014D000F6FE00210220FFF7F2FE85E0EE4884428E
:1014E00008D101210420FFF7EAFE00210420FFF7C4
:1014F000E6FE79E0E948844208D101210820FFF79F
:10150000DEFE00210820FFF7DAFE6DE0E4488442A9
:1015100008D101211020FFF7D2FE00211020FFF793
:10152000CEFE61E0DF48844208D101212020FFF790
:10153000C6FE00212020FFF7C2FE55E0DA488442B3
:1015400008D101210220FFF7CBFE00210220FFF786
:10155000C7FE49E0D548844209D101210804FFF7BC
:10156000BFFE00214FF48030FFF7BAFE3CE0D048C8
:10157000844209D101214804FFF7B2FE00214FF453
:101580000030FFF7ADFE2FE0CA48844209D10121A7
:101590008804FFF7A5FE00214FF48020FFF7A0FE8E
:1015A00022E0C548844208D101214020FFF787FE90
:1015B00000214020FFF783FE16E0C048844208D196
:1015C00001218020FFF77BFE00218020FFF777FEBE
:1015D0000AE0BB48844207D101218015FFF76FFE66
:1015E0000021A015FFF76BFE10BD00220288A84B5A
:1015F00098420ED0AC4B98420BD0B0F1804F08D03F
:10160000A44B984205D0A44B984202D0A34B9842D9
:1016100004D14FF68F731A404B881A43A04B98425F
:1016200007D0A04B984204D04FF6FF431A400B89D5
:101630001A4302804B68C3620B880385944B98421F
:1016400002D0994B984201D18B7A03860123838281
:1016500070474FF0FF3141600021018001814180DE
:10166000817270470185828270470A460021018895
:101670004FF68F73194011430180704741627047E4
:10168000C16270470146486A70470146088D70473D
:1016900021B1028842F00202028004E002884FF683
:1016A000FD731A400280704721B1028842F00402A3
:1016B000028004E002884FF6FB731A4002807047F4
:1016C00021B1028842F08002028004E002884FF6D5
:1016D0007F731A400280704702884FF6F7731A40F2
:1016E000028002880A430280704702884FF6FF4357
:1016F0001A40028002880A430280704721B10288A2
:1017000042F00102028004E002884FF6FE731A40A4
:101710000280704770B5002400220023058C4FF62C
:10172000FE7635400584028C8388048B4FF68F75D6
:101730002C40B51E2C400D882C43751E2A408D89E7
:101740002A434D882A43524DA84202D0564DA84202
:1017500013D14FF6F7752A40CD892A434FF6FB7512
:101760002A408D882A434FF6FF652B404FF6FF55E0
:101770002B400D8A2B434D8A2B43838004838D6835
:101780004563028470BD70B5002400220023058CDF
:101790004FF6EF7635400584028C8388048B48F63B
:1017A000FF752C404FF6FF452C400D884FF6FF7615
:1017B00006EA05252C434FF6DF752A408D8906EA97
:1017C00005152A434D8806EA05152A43304DA842DF
:1017D00002D0354DA8421DD14FF67F752A40CD89E4
:1017E0004FF6FF7606EA05152A434FF6BF752A40E5
:1017F0008D8806EA05152A434FF6FF352B404FF238
:10180000FF752B400D8A06EA85052B434D8A06EAB3
:1018100085052B43838004838D688563028470BDB6
:1018200070B5002400220023058C4FF6FF6635407A
:101830000584028C8388848B4FF68F752C404FF67D
:10184000FC752C400D882C434FF6FF552A408D899E
:101850004FF6FF7606EA05252A434D8806EA052558
:101860002A430B4DA84202D00F4DA84238D14FF267
:10187000FF752A40CD894FF6FF7606EA05252A43F3
:101880004FF6FF352A408D8806EA05252A4319E0E0
:10189000000001400004004000080040000C00402F
:1018A00000100040001400400004014000400140CE
:1018B000004401400048014000180040001C004066
:1018C000002000404EF6FF752B404DF6FF752B4073
:1018D0000D8A06EA05152B434D8A06EA05152B43AA
:1018E000838084838D68C563028470BD70B50022D7
:1018F00000230024058C4EF6FF7635400584038CCA
:101900008488828B48F6FF752A404FF6FF452A40AF
:101910000D884FF6FF7606EA05252A434DF6FF753A
:101920002B408D8906EA05352B434D8806EA05359F
:101930002B43FE4DA84202D0FD4DA84208D14BF6E4
:10194000FF752C400D8A4FF6FF7606EA85152C436D
:10195000848082838D680564038470BD00210180CA
:101960004180818081608181C18101824182704793
:1019700070B50346002000241846183001258D401C
:10198000ACB21D8CA5431D8409B108290AD100EB16
:10199000610005684FF68F76354005600568154390
:1019A00005600FE00D1FC5F34E052844056848F695
:1019B000FF763540056005684FF6FF7606EA022699
:1019C0003543056070BD4163704781637047C163F3
:1019D0007047016470470A460021018B4FF68F73F0
:1019E00019401143018370470A460021018B48F6D4
:1019F000FF7319404FF6FF7303EA02231943018373
:101A000070470A460021818B4FF68F7319401143AE
:101A1000818370470A460021818B48F6FF73194085
:101A20004FF6FF7303EA02231943818370470A4686
:101A30000021018B4FF6F773194011430183704762
:101A40000A460021018B4FF2FF7319404FF6FF73D6
:101A500003EA02231943018370470A460021818B60
:101A60004FF6F77319401143818370470A460021EE
:101A7000818B4FF2FF7319404FF6FF7303EA022385
:101A80001943818370470A460021018B4FF6FB738F
:101A900019401143018370470A460021018B4FF61C
:101AA000FF3319404FF6FF7303EA02231943018302
:101AB00070470A460021818B4FF6FB731940114392
:101AC000818370470A460021818B4FF6FF3319400E
:101AD0004FF6FF7303EA02231943818370470A46D6
:101AE0000021018B4FF67F7319401143018370472A
:101AF0000A460021018BC1F30E014FF6FF7303EA82
:101B000002231943018370470A460021818B4FF657
:101B10007F7319401143818370470A460021818BEE
:101B2000C1F30E014FF6FF7303EA022319438183C9
:101B300070470A460021018C4FF6FD73194011438E
:101B4000018470470A460021018C4FF6F773194053
:101B50001143018470470A460021018C4FF6DF7360
:101B600019404FF6FF7303EA0213194301847047CB
:101B70000A460021018C4FF67F7319404FF6FF7320
:101B800003EA02131943018470470A460021018CBD
:101B90004FF6FF5319404FF6FF7303EA0223194330
:101BA000018470470A460021018C4FF2FF731940EF
:101BB0004FF6FF7303EA02231943018470470A4674
:101BC0000021018C4DF6FF7319404FF6FF7303EAB5
:101BD000023319430184704730B5002301248C403F
:101BE000A3B2048C9C430484048C02FA01F5ADB2C8
:101BF0002C43048430BD30B5002304248C40A3B2B0
:101C0000048C9C430484048C02FA01F5ADB22C438D
:101C1000048430BD828B4FF2FF331A408283828B63
:101C20004FF6FF7303EA01231A4382837047F0B52E
:101C30000C461546002100220026078C4EF6FF7C3C
:101C400007EA0C070784818B028C4FF6FF7707EABF
:101C5000043640F6FF4739404FF6FF7707EA05277D
:101C600039434FF6FF7707EA0337394345F6FF77E5
:101C70003A4046F480573A4381830284F0BD828B18
:101C80004FF6F3731A408283828B0A438283704734
:101C9000F0B50C461546002100220026078C4FF6B1
:101CA000FF6C07EA0C070784818B028C4FF6FF77E5
:101CB00007EA04264FF60C7739404FF6FF7707EA1C
:101CC00003172F4339434FF2FF573A4046F48077CA
:101CD0003A4381830284F0BD028B4FF2FF331A40F6
:101CE0000283028B4FF6FF7303EA01231A43028338
:101CF0007047F0B50C461546002100220026078CDF
:101D00004FF6EF7C07EA0C070784018B028C4FF635
:101D1000FF7707EA041640F6FF4739404FF6FF7792
:101D200007EA033739434FF6FF7703E0000001402D
:101D30000004014007EA052739434FF65F773A4030
:101D400046F010073A4301830284F0BD028B4FF640
:101D5000F3731A400283028B0A4302837047F0B583
:101D60000C46154600210022068C4FF6FE773E40B9
:101D70000684018B028C4FF60C7631407E1C06EAFD
:101D800003162E4331434FF6F576324044F00106F8
:101D9000324301830284F0BD70B505460C462088AD
:101DA00050B92389A28861882846FFF7D8FFE188C7
:101DB0002846FFF7CBFF25E0208804280AD1238995
:101DC000A28861882846FFF794FFE1882846FFF73C
:101DD00083FF17E0208808280AD12389A288618818
:101DE0002846FFF755FFE1882846FFF748FF09E03E
:101DF0002389A28861882846FFF719FFE1882846D1
:101E0000FFF708FF70BD0021018041800121818022
:101E10000021C180018170472DE9F04105460C4643
:101E200000260127608808B9022600E00026A08865
:101E3000012801D1022700E001272088A0B92389C9
:101E4000A28861882846FFF78AFFE1882846FFF7C5
:101E50007DFF23893A4631462846FFF74AFFE1884D
:101E60002846FFF739FF13E02389A28861882846B6
:101E7000FFF73FFFE1882846FFF72EFF23893A4608
:101E800031462846FFF76BFFE1882846FFF75EFFE3
:101E9000BDE8F0810146486B70470146886B70478A
:101EA0000146C86B70470146086C70470A884B882A
:101EB0001A438B881A43CB881A430B891A434B89E0
:101EC0001A438B891A43A0F84420704700210180EF
:101ED00041808180C180018141818181704731B120
:101EE000B0F8442042F40042A0F8442005E0B0F8E5
:101EF0004420C2F30E02A0F84420704721B182882A
:101F000042F00402828004E082884FF6FB731A409C
:101F10008280704721B1828842F00102828004E011
:101F200082884FF6FE731A40828070471AB1838907
:101F30000B43838102E083898B43838170478182D5
:101F4000704702460020138A0B400BB1012000E0CD
:101F500000207047CA430282704730B50246002015
:101F600000230024158A05EA0103958905EA010486
:101F700013B10CB1012000E0002030BDCA43028241
:101F8000704741EA0203A0F8483070471AB18389CC
:101F90000B43838102E083898B438381704721B1A6
:101FA000828842F00802828004E082884FF6F7734C
:101FB0001A408280704701894FF6F8721140018102
:101FC00070470A46002101894FF68F73194011436B
:101FD0000181704730B504460D4629462046FFF77B
:101FE000F0FF208940F00700208130BD2DE9F0414D
:101FF00004460D4616461F46602D06D13B4601227B
:1020000031462046FFF775FE05E03B46012231468A
:102010002046FFF7A4FE29462046FFF7D2FF20897D
:1020200040F007002081BDE8F08130B50C4600216A
:102030000189C9B24FF6FF7505EA0325154325430B
:102040002943018130BD2DE9F04105460E46174672
:102050009846002443463A4631462846FFF7E5FFB6
:102060002C894FF6F870044044F007044FF68F7047
:10207000044044F070042C81BDE8F081F0B50446C2
:102080000D4616461F463B46324629462046FFF778
:10209000CCFF208940F480402081F0BD82884FF63B
:1020A0008F731A40828082880A4382807047028937
:1020B0004FF6F8731A40028102890A430281704781
:1020C00002894FF67F731A40028102890A43028116
:1020D0007047F0B50C4615461E460021002200232D
:1020E0000189028B038C4FF6F877394021434FF674
:1020F000FC473A4040F201173A434FF6DD773B4048
:102100004FF6FF7707EA06172F433B43018102830F
:102110000384F0BD21B1828842F08002828004E015
:1021200082884FF67F731A4082807047A0F8501063
:102130007047000010B50446F748844208D10121D9
:102140001020FFF7CDF800211020FFF7C9F83EE07E
:10215000F248844209D101214804FFF7B0F8002178
:102160004FF40030FFF7ABF831E0ED48844209D17D
:1021700001218804FFF7A3F800214FF48020FFF726
:102180009EF824E0E748844209D10121C804FFF702
:1021900096F800214FF40020FFF791F817E0E2488D
:1021A000844209D101210805FFF789F800214FF485
:1021B0008010FFF784F80AE0DC48844207D101214F
:1021C0002020FFF78DF800212020FFF789F810BDAF
:1021D0002DE9FF4705460E460024A14600BFA04654
:1021E000B08900B100BF2C8A24F44054F088044325
:1021F0002C82AC8941F20C608443B0883189084359
:10220000718908430443AC81AC8A24F44074B089DA
:102210000443AC826846FEF722FFBF48854202D0E5
:10222000C248854202D1DDF80C9001E0DDF808904B
:10223000A88900F4004040B109EBC90000EB091087
:1022400031684900B0FBF1F707E009EBC90000EB8A
:10225000091031688900B0FBF1F76420B7FBF0F09A
:1022600004012009642101FB1078A88900F40040D2
:1022700040B1322000EBC800B0FBF1F000F00700E5
:10228000044308E0322000EB08106421B0FBF1F0B9
:1022900000F00F0004432C81BDE8FF874FF4165176
:1022A000016000218180C18001810C2141810021D8
:1022B0008181704710B502460020108A20F47060BA
:1022C0000B884C8823438C882343CC8823431843B2
:1022D000108210BD0021018041808180C180704743
:1022E00021B1828942F40052828104E082894DF654
:1022F000FF731A4082817047028B02F47F4202838F
:10230000028B0A430283704721B1828942F4004262
:10231000828103E08289C2F30E028281704721B17B
:10232000828A42F40062828204E0828A4FF2FF7362
:102330001A4082827047C1F30802828070470146CA
:102340008888C0F308007047028A4FF6F0731A407D
:102350000282028A0A430282704721B1828942F0D6
:102360000202828104E082894FF6FD731A40828165
:10237000704782894FF2FF731A40828182890A4333
:1023800082817047028A4FF6DF731A400282028A06
:102390000A430282704721B1028A42F480420282DB
:1023A00004E0028A4BF6FF731A400282704781896B
:1023B00041F001018181704721B1828A42F0080217
:1023C000828204E0828A4FF6F7731A408282704755
:1023D000028BD2B20283028B42EA0122028370474F
:1023E00021B1828A42F02002828204E0828A4FF682
:1023F000DF731A408282704721B1828A42F0100254
:10240000828204E0828A4FF6EF731A40828270471C
:10241000828A4FF6FB731A408282828A0A43828242
:10242000704721B1828A42F00202828204E0828AED
:102430004FF6FD731A40828270471AB1838A0B43AC
:10244000838202E0838A8B4383827047F0B5034620
:10245000002400260025002040F66A17B94200D16A
:1024600000BF1846C1F3421401F01F06012707FA06
:1024700006F5012C01D10C3004E0022C01D1103002
:1024800000E014301AB107682F43076002E00768C4
:10249000AF430760F0BD02460020B1F5007F00D1D8
:1024A00000BF13880B400BB1012000E000207047F3
:1024B00001F40072B2F5007F00D100BFCA43028070
:1024C000704770B50246002400230025002040F626
:1024D0006A16B14200D100BFC1F3421501F01F03DB
:1024E000012606FA03F3012D02D19689334006E056
:1024F000022D02D1168A334001E0968A33400C1235
:10250000012606FA04F41688344013B10CB10120F8
:1025100000E0002070BD00000010014000440040B9
:1025200000480040004C00400050004000140140B2
:1025300010B50022002340F66A14A14200D100BF6A
:102540000A1201249440A3B2DC43048010BD0000B1
:102550000CB50020019000907648006840F480306F
:102560007449086000BF7348006800F400300090B0
:102570000198401C0190009818B90198B0F5A06F1F
:10258000F1D16C48006800F4003010B101200090D7
:1025900001E0002000900098012846D165484030B5
:1025A000006840F08050634940310860624800682C
:1025B00040F48040604908605E48083000685D492A
:1025C000083108600846006840F40040086008468A
:1025D000006840F4A05008605848091F0860081FB0
:1025E000006840F08070091F086000BF5148006813
:1025F00000F000700028F9D040F2056050490860F2
:102600004C480830006820F003004A49083108604F
:102610000846006840F00200086000BF45480830E6
:10262000006800F00C000828F8D10CBD10B5454832
:10263000006840F47000434908603E48006840F07C
:1026400001003C49086000203A49083108603948D7
:1026500000683D490840374908603C48091D08604A
:10266000081F006820F48020091F086000203149FD
:102670000C310860FFF76CFF4FF000603149803982
:10268000086010BD70B50020002202230024022142
:10269000284D08352D6805F00C0020B1042806D01F
:1026A000082834D107E02A4D2A4E356033E02A4D00
:1026B000284E35602FE01F4D2D1D2D68C5F3805429
:1026C0001C4D2D1D2D6805F03F0154B1224DB5FB69
:1026D000F1F5184E361D3668C6F3881605FB06F26E
:1026E00009E01B4DB5FBF1F5124E361D3668C6F3F9
:1026F000881605FB06F20F4D2D1D2D68C5F301450B
:102700006D1C6B00B2FBF3F5124E356003E0104D0B
:10271000104E356000BF00BF064D08352D68C5F36B
:1027200003150E4E705D0B4D2D68C540094E35608A
:1027300070BD000000380240007000401954410E86
:10274000003C024088ED00E0FFFFF6FE1030002460
:102750000024F4001000002040787D0114000020C7
:10276000704710B52DED048B002405E0FD48005D99
:10277000FD490855601CC4B2042CF7DBFA48B0F9D7
:10278000000000EE100AB8EEC00AF84880ED000A1A
:10279000042406E0F348015D201FF34A1154601C35
:1027A000C4B2082CF6DBF048B0F9000000EE100AC5
:1027B000B8EEC00AED4880ED010A082407E0E948B8
:1027C000015DA4F10800E84A1154601CC4B20C2C4D
:1027D000F5DBE548B0F9000000EE100AB8EEC00ADB
:1027E000E24880ED020A0C2407E0DE48015DA4F116
:1027F0000C00DD4A1154601CC4B2102CF5DBDA4821
:10280000B0F9000000EE100AB8EEC00AD74880ED1B
:10281000030A102407E0D348015DA4F11000D24A56
:102820001154601CC4B2142CF5DBCF48B0F9000081
:1028300000EE100AB8EEC00ACC4880ED040A142459
:1028400007E0C848015DA4F11400C74A1154601C98
:10285000C4B2182CF5DBC448B0F9000000EE100A31
:10286000B8EEC00AC14880ED050A90ED030A10EEEB
:10287000101A084605F0BDFD41EC190B9FEDBC0B8D
:1028800053EC102B05F097FC41EC180B05F0F4FD10
:10289000B6498861084690ED040A10EE101A084601
:1028A00005F0A7FD41EC190B9FEDB10B53EC102B7C
:1028B00005F081FC41EC180B05F0DEFDAB49C86169
:1028C000084690ED050A10EE101A084605F091FD35
:1028D00041EC190B9FEDA60B53EC102B05F06BFC94
:1028E00041EC180B05F0C8FDA0490862BDEC048B53
:1028F00010BD00B597B001219F48FEF745FC0121AE
:102900008804FEF774FC07220B219C48FEF781FA2D
:1029100007220A219948FEF77CFA4FF44060119093
:1029200002208DF8480000208DF84A0003208DF821
:10293000490000208DF84B0011A99048FEF7DEF900
:102940004FF4FA2013900020ADF85000ADF852007B
:10295000ADF854000C20ADF856000020ADF858003A
:1029600013A98748FFF734FC01218548FFF7B8FC1D
:10297000012280218248FFF760FD0122402180482A
:10298000FFF75BFD0E208DF8400001208DF841001F
:1029900002208DF8420001208DF8430010A8FDF7B9
:1029A00002FC7848FDF77CFC4FF000600190744811
:1029B000001D029074480390402004900920059067
:1029C000002006904FF48060079000200890099046
:1029D0000A904FF440300B9000200C900D900E9018
:1029E0000F9001A96748FDF7FDFC01221021654801
:1029F000FDF7BFFD00216348FDF72EFD012240F2E7
:102A000024415F48FFF722FD27208DF84000012078
:102A10008DF841008DF842008DF8430010A8FDF7B5
:102A2000C2FB58483038FDF73BFC4FF00060019086
:102A30005348001D02904B480390002004908020D2
:102A40000590002006904FF48060079000200890C9
:102A500009904FF480700A904FF440300B900020A2
:102A60000C900D900E900F9001A946483038FDF75C
:102A7000B9FC012143483038FDF7EEFC17B000BD2A
:102A800010B542493F48FDF791FD40B14FF0C051AC
:102A90003C48FDF75AFD3D493A48FDF7B1FD10BDF0
:102AA00070B538483038FDF7FAFCC0F1800085B2C7
:102AB00033480088C4B23248001D0088C4B20021E7
:102AC00030483038FDF7C8FC31492E483038FDF722
:102AD0003CFD80212B483038FDF7DFFC40F22441DB
:102AE0002748FFF725FD04F0D8FA012125483038A2
:102AF000FDF7B2FC70BD10B500212248FDF7ACFC1B
:102B000024480088000A204908702248007848704C
:102B100020484088000A88701E488078C8701D4888
:102B20008088000A08711B48007948711948C088DC
:102B3000000A887117488079C8711648007A0872AF
:102B40000846007A1349897A890640EA11600E49DD
:102B5000087209210B48FDF7A0FC01210948FDF787
:102B60007BFC10BD61060020280000202806002004
:102B7000FBEB1516DCA54C400400200000080240C9
:102B800000480040586002405806002000800018AD
:102B9000400F0010F40500207FB56846FEF75FFA8D
:102BA0004FF47A710198B0FBF1F4E4082146481E15
:102BB000B0F1807F00D31BE0481E4FF0E02250614F
:102BC00050170F22002807DA13071E0E434B00F0A0
:102BD0000F052D1F5E5503E013071D0E404B1D54BE
:102BE00000BF00204FF0E02290610720106100BF7D
:102BF0006FF00400FDF724FB7FBD3A4A11684FF0E7
:102C0000E02252694FF0E0239B69D21A4FF47A73A5
:102C10005A434FF0E0235B69B2FBF3F201EB41034F
:102C2000C3EBC11302EBC300704730B50446FFF796
:102C3000E4FF054600BFFFF7E0FF401BA042FAD3C8
:102C400030BD10B5044603E04FF47A70FFF7EDFF96
:102C5000201EA4F10104F7D110BD10B503F0E2FB72
:102C600040202149088004F035FE4FF48060FDF7D4
:102C700095FAFFF791FF04F029F8FFF73AFE4FF4B9
:102C8000C87004F077F905F00CF803F017FC03F0B6
:102C900041FDF2EE040A9FED150A00F0C3F9F2EED1
:102CA000040A9FED120A00F063FBF2EE040A9FEDA6
:102CB0000F0A00F05FFCF2EE040A9FED0C0A00F030
:102CC0002CFDF2EE040A9FED090A00F02BFE00F045
:102CD00052F801200649C87010BD000018ED00E050
:102CE00000E400E02C000020180402400000C8426C
:102CF00098050020B2EE0E1AF4EEC10AF1EE10FAB9
:102D000000D270479FEDBB1AC0EE811ABA48018EFF
:102D1000008E401CB84A10864EF66020814206DACA
:102D20001046008E1146098E491C118601E04EF6B0
:102D3000602001EE100AB8EEC11A21EE001AF4EE7E
:102D4000C11AF1EE10FA03D20120AB4981F832002A
:102D5000A94890F8320001280BD10020A64908802C
:102D6000488088804FF6FC60C880032008810220DC
:102D7000488100BFC5E700B597B001219F48FEF725
:102D800003FA01214804FEF732FA072203219C4886
:102D9000FEF73FF80820119002208DF8480000202F
:102DA0008DF84A0003208DF8490000208DF84B0073
:102DB00011A99348FDF7A2FF9248FFF7BBF992488B
:102DC00013900020ADF85000ADF852004FF4806031
:102DD000ADF854000420ADF856000020ADF85800BE
:102DE00013A98848FFF7F4F901218648FFF778FA1C
:102DF000012240218348FFF720FB10208DF840007E
:102E000001208DF841008DF842008DF8430010A894
:102E1000FDF7C9F97D48FDF743FA4FF000600190D6
:102E20007848001D02907A480390002004901220F8
:102E30000590002006904FF48060079000200890D5
:102E400009904FF480700A904FF440300B900020AE
:102E50000C900D900E900F9001A96C48FDF7C2FAEE
:102E6000012210216948FDF784FB01216748FDF725
:102E7000F3FA17B000BD10B55F4800885E4988813D
:102E800008464188C18181880182C18841826048A9
:102E900000785F49497840EA0120C0F30A005D49A3
:102EA00008800846B0F90000A0F5806000EE900AA6
:102EB000F8EEE00AB0EE600AF1EE040A03F0C4FE98
:102EC000BDEEC00A10EE100A00B24B49088050480F
:102ED0004078C0104E49897840EA4110C0F30A009A
:102EE0004C4948800846B0F90200A0F5806000EE29
:102EF000900AF8EEE00AB0EE600AF1EE040A03F080
:102F0000A3FEBDEEC00A10EE100A00B23A49C88016
:102F10003F48807880113E49C97840EA81003C49A9
:102F2000097940EA8120C0F30A003A4988800846BE
:102F3000B0F90400A0F5806000EE900AF8EEE00A17
:102F4000B0EE600AF1EE040A03F07EFEBDEEC00AA8
:102F500010EE100A00B2284988802D4800794010F0
:102F60002B49497940EAC110C0F30A002949C880B9
:102F70000846B0F90600A0F5806000EE900AF8EE71
:102F8000E00AB0EE600AF1EE040A03F05DFEBDEE69
:102F9000C00A10EE100A00B2174948801C48407958
:102FA0000011800808811A484079C0F30110488157
:102FB00008464089022801D0FFF79DFD00200E49F8
:102FC000088681F8320010BD10B513490F48FDF78F
:102FD000EDFA68B111490D48FDF7B7FA0E490B48F3
:102FE000FDF70EFB4FF480700D490880FFF743FF9B
:102FF00010BD000000007A44F4050020010020000C
:103000000000024000440040A086010088600240A9
:10301000C4070020DE0700200088002000080020F0
:103020001A04024010B52DED068BF0EE409AF0EE3A
:10303000608A9FEDFE0AB0EE40AA9FEDFC0AB0EE5A
:10304000408A9FEDFA0AB0EE409A89EEA80AB0EEE7
:1030500040AA9FEDF70AC0EE0A0AF0EE60AAB0EEB1
:103060006A0A06F055FBB0EE408A9FEDF20A05F0C1
:103070001BFCF0EE000A60EE200AB7EE000A00EE3C
:10308000880A08EE080AB0EE409AEB48C0ED008AC4
:1030900090ED000AB5EEC00AF1EE10FA35DD28EE2B
:1030A000080AC0EE090AE548C0ED000A90ED000AE2
:1030B000F0EE000A20EE200AE14880ED000ADF4829
:1030C00090ED000ADF4880ED000AB7EE000A18EE26
:1030D000080AF0EE000A20EE200AC0EE090ADA48DB
:1030E000C0ED000A9FEDD30A05F0DEFBF0EE000A0A
:1030F00060EE200AB7EE000A00EEC80A08EE080AE1
:10310000C0EE090AD148C0ED000ABDEC068B10BD27
:1031100010B52DED048BF0EE408A9FEDC40AB0EEA1
:10312000408A9FEDC20AB0EE409AC34890ED000A73
:10313000B5EEC00AF1EE10FA04D8B0EE680ABDECA4
:10314000048B10BDB0EE680AC148D0ED000ABE483D
:1031500090ED001A00EEC10ABE48D0ED000ABB484F
:1031600090ED001A00EEC10AB0EE408A18EE100A87
:1031700000F005FF20B918EE100A00F0F6FE08B1C5
:10318000B0EE688AAD4890ED000A28EE000AB0481B
:10319000D0ED000AAA4890ED001A00EE810AAD4871
:1031A000D0ED000AA74890ED001A00EE810AB0EEBB
:1031B000409AA74890ED000AA64880ED000AA4486E
:1031C00080ED008AB0EE490AB9E710B52DED068B07
:1031D000F0EE409AF0EE608A9FED940AB0EE40AABD
:1031E0009FED920AB0EE408A9FED900AB0EE409AB1
:1031F00089EEA80AB0EE40AA9FED8D0AC0EE0A0A39
:10320000F0EE60AAB0EE6A0A06F082FAB0EE408AEA
:103210009FED880A05F048FBF0EE000A60EE200AF8
:10322000B7EE000A00EE880A08EE080AB0EE409AEF
:103230008948C0ED008A90ED000AB5EEC00AF1EEB3
:1032400010FA35DD28EE080AC0EE090A8348C0ED01
:10325000000A90ED000AF0EE000A20EE200A8048F5
:1032600080ED000A7D4890ED000A7E4880ED000A5E
:10327000B7EE000A18EE080AF0EE000A20EE200A67
:10328000C0EE090A7848C0ED000A9FED6A0A05F011
:103290000BFBF0EE000A60EE200AB7EE000A00EE2B
:1032A000C80A08EE080AC0EE090A7048C0ED000A14
:1032B000BDEC068B10BD10B52DED048BF0EE408AF1
:1032C0009FED5A0AB0EE408A9FED580AB0EE409A40
:1032D000614890ED000AB5EEC00AF1EE10FA04D88C
:1032E000B0EE680ABDEC048B10BDB0EE680A604811
:1032F000D0ED000A5C4890ED001A00EEC10A5D486E
:10330000D0ED000A594890ED001A00EEC10AB0EE67
:10331000408A18EE100A00F032FE20B918EE100AAA
:1033200000F023FE08B1B0EE688A4C4890ED000A28
:1033300028EE000A4E48D0ED000A494890ED001AE8
:1033400000EE810A4B48D0ED000A464890ED001A85
:1033500000EE810AB0EE409A454890ED000A4548DB
:1033600080ED000A424880ED008AB0EE490AB9E7D4
:1033700010B52DED068BF0EE409AF0EE608A9FEDD1
:103380002B0AB0EE40AA9FED290AB0EE408A9FEDCD
:10339000270AB0EE409A89EEA80AB0EE40AA9FED47
:1033A000240AC0EE0A0AF0EE60AAB0EE6A0A06F03D
:1033B000AFF9B0EE408A9FED1F0A05F075FAF0EE06
:1033C000000A60EE200AB7EE000A00EE880A08EE56
:1033D000080AB0EE409A2848C0ED008A90ED000A35
:1033E000B5EEC00AF1EE10FA64DD28EE080AC0EE70
:1033F000090A2248C0ED000A90ED000AF0EE000A2A
:1034000020EE200A1E4880ED000A1C4890ED000ABC
:103410001C4880ED000AB7EE000A18EE080AF0EE2C
:10342000000A20EE200AC0EE090A2DE0000000008C
:10343000DA0F4940DA0F493F300000203C000020FD
:10344000400000204400002034000020380000200C
:10345000480000204C000020500000205C000020AC
:10346000600000206400002054000020580000206C
:10347000680000206C000020700000207C0000200C
:103480008000002084000020FE48C0ED000A1FEDEF
:10349000170A05F009FAF0EE000A60EE200AB7EE0E
:1034A000000A00EEC80A08EE080AC0EE090AF6484B
:1034B000C0ED000ABDEC068B10BD10B52DED048BE0
:1034C000F0EE408A1FED270AB0EE408A1FED290A70
:1034D000B0EE409AED4890ED000AB5EEC00AF1EE6C
:1034E00010FA04D8B0EE680ABDEC048B10BDB0EE43
:1034F000680AE748D0ED000AE24890ED001A00EEB5
:10350000C10AE448D0ED000ADF4890ED001A00EE51
:10351000C10AB0EE408A18EE100A00F030FD20B962
:1035200018EE100A00F021FD08B1B0EE688ADA4802
:1035300090ED000A28EE000AD548D0ED000AD748E1
:1035400090ED001A00EE810AD248D0ED000AD4486E
:1035500090ED001A00EE810AB0EE409ACC4890ED52
:10356000000ACC4880ED000AC94880ED008AB0EE20
:10357000490AB9E710B52DED068BF0EE409AF0EE52
:10358000608A1FED560AB0EE40AA1FED580AB0EE51
:10359000408A1FED5A0AB0EE409A89EEA80AB0EEB2
:1035A00040AA1FED5D0AC0EE0A0AF0EE60AAB0EE76
:1035B0006A0A06F0ADF8B0EE408A1FED620A05F027
:1035C00073F9F0EE000A60EE200AB7EE000A00EE92
:1035D000880A08EE080AB0EE409AB248C0ED008AA8
:1035E00090ED000AB5EEC00AF1EE10FA35DD28EED6
:1035F000080AC0EE090AAC48C0ED000A90ED000AC6
:10360000F0EE000A20EE200AA84880ED000AA64845
:1036100090ED000AA64880ED000AB7EE000A18EE09
:10362000080AF0EE000A20EE200AC0EE090AA148BE
:10363000C0ED000A1FED810A05F036F9F0EE000A30
:1036400060EE200AB7EE000A00EEC80A08EE080A8B
:10365000C0EE090A9848C0ED000ABDEC068B10BD0B
:1036600010B52DED048BF0EE408A1FED900AB0EE00
:10367000408A1FED920AB0EE409A8A4890ED000A07
:10368000B5EEC00AF1EE10FA04D8B0EE680ABDEC4F
:10369000048B10BDB0EE680A8848D0ED000A85485A
:1036A00090ED001A00EEC10A8548D0ED000A82486C
:1036B00090ED001A00EEC10AB0EE408A18EE100A32
:1036C00000F05DFC20B918EE100A00F04EFC08B1C5
:1036D000B0EE688A744890ED000A28EE000A774838
:1036E000D0ED000A714890ED001A00EE810A74488E
:1036F000D0ED000A6E4890ED001A00EE810AB0EE9F
:10370000409A6E4890ED000A6D4880ED000A6B48C3
:1037100080ED008AB0EE490AB9E710B52DED068BB1
:10372000F0EE409AF0EE608A1FEDC00AB0EE40AABB
:103730001FEDC20AB0EE408A1FEDC40AB0EE409AF7
:1037400089EEA80AB0EE40AA1FEDC70AC0EE0A0A29
:10375000F0EE60AAB0EE6A0A05F0DAFFB0EE408A39
:103760001FEDCC0A05F0A0F8F0EE000A60EE200A8A
:10377000B7EE000A00EE880A08EE080AB0EE409A9A
:103780005048C0ED008A90ED000AB5EEC00AF1EE97
:1037900010FA35DD28EE080AC0EE090A4A48C0EDE5
:1037A000000A90ED000AF0EE000A20EE200A4748D9
:1037B00080ED000A444890ED000A454880ED000A7B
:1037C000B7EE000A18EE080AF0EE000A20EE200A12
:1037D000C0EE090A3F48C0ED000A1FEDEA0A05F0F5
:1037E00063F8F0EE000A60EE200AB7EE000A00EE81
:1037F000C80A08EE080AC0EE090A3748C0ED000AF8
:10380000BDEC068B10BD10B52DED048BF0EE408A9B
:103810001FEDFA0AB0EE408A1FEDFC0AB0EE409AA6
:10382000284890ED000AB5EEC00AF1EE10FA04D86F
:10383000B0EE680ABDEC048B10BDB0EE680A2748F4
:10384000D0ED000A234890ED001A00EEC10A24488A
:10385000D0ED000A204890ED001A00EEC10AB0EE4B
:10386000408A18EE100A00F08AFB20B918EE100A00
:1038700000F07BFB08B1B0EE688A134890ED000AB7
:1038800030E000007400002078000020700000206C
:10389000880000208C0000207C0000208000002098
:1038A00084000020900000209C000020A000002048
:1038B000A40000209400002098000020A800002010
:1038C000AC000020B0000020BC000020C0000020A0
:1038D000C4000020B4000020B8000020C800002070
:1038E000CC00002028EE000AFE48D0ED000AFE4879
:1038F00090ED001A00EE810AFC48D0ED000AFC4869
:1039000090ED001A00EE810AB0EE409AF54890ED75
:10391000000AF64880ED000AF24880ED008AB0EE19
:10392000490A87E710B52DED068BF0EE409AF0EED0
:10393000608A9FEDF00AB0EE40AA9FEDEE0AB0EE6D
:10394000408A9FEDEC0AB0EE409A89EEA80AB0EEEC
:1039500040AA9FEDE90AC0EE0A0AF0EE60AAB0EEB6
:103960006A0A05F0D5FEB0EE408A9FEDE40A04F045
:103970009BFFF0EE000A60EE200AB7EE000A00EEB0
:10398000880A08EE080AB0EE409ADD48C0ED008AC9
:1039900090ED000AB5EEC00AF1EE10FA35DD28EE22
:1039A000080AC0EE090AD748C0ED000A90ED000AE7
:1039B000F0EE000A20EE200AD34880ED000AD1483C
:1039C00090ED000AD14880ED000AB7EE000A18EE2B
:1039D000080AF0EE000A20EE200AC0EE090ACC48E0
:1039E000C0ED000A9FEDC50A04F05EFFF0EE000A8C
:1039F00060EE200AB7EE000A00EEC80A08EE080AD8
:103A0000C0EE090AC348C0ED000ABDEC068B10BD2C
:103A100010B52DED048BF0EE408A9FEDB60AB0EEA6
:103A2000408A9FEDB40AB0EE409AB54890ED000A86
:103A3000B5EEC00AF1EE10FA04D8B0EE680ABDEC9B
:103A4000048B10BDB0EE680AB348D0ED000AB04850
:103A500090ED001A00EEC10AB048D0ED000AAD4862
:103A600090ED001A00EEC10AB0EE408A18EE100A7E
:103A700000F085FA20B918EE100A00F076FA08B1C5
:103A8000B0EE688A9F4890ED000A28EE000AA2482E
:103A9000D0ED000A9C4890ED001A00EE810A9F4884
:103AA000D0ED000A994890ED001A00EE810AB0EEC0
:103AB000409A994890ED000A984880ED000A96488F
:103AC00080ED008AB0EE490AB9E710B52DED068BFE
:103AD000F0EE409AF0EE608A9FED860AB0EE40AAC2
:103AE0009FED840AB0EE408A9FED820AB0EE409AC4
:103AF00089EEA80AB0EE40AA9FED7F0AC0EE0A0A3E
:103B0000F0EE60AAB0EE6A0A05F002FEB0EE408A5E
:103B10009FED7A0A04F0C8FEF0EE000A60EE200A7B
:103B2000B7EE000A00EE880A08EE080AB0EE409AE6
:103B30007B48C0ED008A90ED000AB5EEC00AF1EEB8
:103B400010FA35DD28EE080AC0EE090A7548C0ED06
:103B5000000A90ED000AF0EE000A20EE200A7248FA
:103B600080ED000A6F4890ED000A704880ED000A71
:103B7000B7EE000A18EE080AF0EE000A20EE200A5E
:103B8000C0EE090A6A48C0ED000A9FED5C0A04F025
:103B90008BFEF0EE000A60EE200AB7EE000A00EE9F
:103BA000C80A08EE080AC0EE090A6248C0ED000A19
:103BB000BDEC068B10BD10B52DED048BF0EE408AE8
:103BC0009FED4C0AB0EE408A9FED4A0AB0EE409A53
:103BD000534890ED000AB5EEC00AF1EE10FA04D891
:103BE000B0EE680ABDEC048B10BDB0EE680A524816
:103BF000D0ED000A4E4890ED001A00EEC10A4F4881
:103C0000D0ED000A4B4890ED001A00EEC10AB0EE6C
:103C1000408A18EE100A00F0B2F920B918EE100A26
:103C200000F0A3F908B1B0EE688A3E4890ED000AB2
:103C300028EE000A4048D0ED000A3B4890ED001AFB
:103C400000EE810A3D48D0ED000A384890ED001A98
:103C500000EE810AB0EE409A374890ED000A3748EE
:103C600080ED000A344880ED008AB0EE490AB9E7D9
:103C700010B52DED068BF0EE409AF0EE608A9FEDC8
:103C80001D0AB0EE40AA9FED1B0AB0EE408A9FEDE0
:103C9000190AB0EE409A89EEA80AB0EE40AA9FED4C
:103CA000160AC0EE0A0AF0EE60AAB0EE6A0A05F043
:103CB0002FFDB0EE408A9FED110A04F0F5FDF0EE05
:103CC000000A60EE200AB7EE000A00EE880A08EE4D
:103CD000080AB0EE409A1A48C0ED008A90ED000A3A
:103CE00030E00000C8000020C0000020CC00002010
:103CF000C400002000000000DA0F4940DA0F493FFD
:103D0000D0000020DC000020E0000020E4000020C3
:103D1000D4000020D8000020E8000020EC000020A3
:103D2000F0000020FC000020000100200401002021
:103D3000F4000020F8000020080100200C01002001
:103D400010010020B5EEC00AF1EE10FA35DD28EEC4
:103D5000080AC0EE090A8D48C0ED000A90ED000A7D
:103D6000F0EE000A20EE200A894880ED000A87481C
:103D700090ED000A874880ED000AB7EE000A18EEC1
:103D8000080AF0EE000A20EE200AC0EE090A824876
:103D9000C0ED000A1FED270A04F086FDF0EE000AD0
:103DA00060EE200AB7EE000A00EEC80A08EE080A24
:103DB000C0EE090A7948C0ED000ABDEC068B10BDC3
:103DC00010B52DED048BF0EE408A1FED360AB0EEF3
:103DD000408A1FED380AB0EE409A714890ED000A13
:103DE000B5EEC00AF1EE10FA04D8B0EE680ABDECE8
:103DF000048B10BDB0EE680A6A48D0ED000A664830
:103E000090ED001A00EEC10A6748D0ED000A634841
:103E100090ED001A00EEC10AB0EE408A18EE100ACA
:103E200000F0ADF820B918EE100A00F09EF808B1C5
:103E3000B0EE688A554890ED000A28EE000A59480D
:103E4000D0ED000A524890ED001A00EE810A564863
:103E5000D0ED000A4F4890ED001A00EE810AB0EE56
:103E6000409A504890ED000A4F4880ED000A4D48B6
:103E700080ED008AB0EE490AB9E700B52DED108B50
:103E800089B0B0EE40BAF0EE60BAB0EE418AF0EE22
:103E9000618AB0EE429AF0EE629A8DED069B8DED4E
:103EA000048B424890ED000BB0EE40CAF0EE60CAC1
:103EB00090ED000BB0EE40CAF0EE60CA9DED048BB1
:103EC00053EC182B3A4890ED000B51EC100B04F01A
:103ED000CBF841EC1A0B9DED069B53EC192B51ECE2
:103EE0001A0B04F0C1F841EC1F0B53EC1F2B51ECE3
:103EF0001A0B04F0D2F941EC1E0B53EC1C2B51ECC5
:103F00001B0B04F052F941EC1F0B53EC1E2B04F079
:103F100052F953EC1C2BCDE900019DED000B51EC47
:103F2000100B04F0A1F841EC1D0B53EC1E2B9FED80
:103F3000210B51EC100B04F038F941EC1F0B53EC42
:103F40001A2B04F038F9CDE902019DED020B184857
:103F500080ED000B154880ED00DBB0EE4D0AF0EE71
:103F60006D0A09B0BDEC108B00BD01464FF07F40DB
:103F7000B0EB410F01D1012070470020FCE7014662
:103F800021F00040C0F1FF40C00F70471C0100202D
:103F9000200100202401002014010020180100202D
:103FA00010010020280100202C01002030010020F9
:103FB00038010020000000000000F03F70B504460A
:103FC0000025FCF70DFCF320FCF723FE0221204620
:103FD000FCF752FC082800D000BFFCF70EFC0125BE
:103FE000284670BD10B55820FFF7E8FF10BD00212E
:103FF00009E0244A02EBC1200068401C08B90846C9
:104000007047481CC1B24029F3DBFF20F8E770B5C8
:104010002DED028B06460C46B0EE408AB4F5FF7FCC
:1040200003DD0020BDEC028B70BD18EE105A06EBCC
:1040300084002946FCF7C9FC082801D10120F1E7DA
:104040000020EFE770B505460C461646B4F5FF7F35
:1040500001DD002070BD05EB84003146FCF7B5FCA6
:10406000082801D10120F5E70020F3E750F82120CE
:1040700000EE902AB0EE600A7047024652F8210026
:104080007047000000000E08F0B502460B460026FF
:1040900000240021002502B10BB90020F0BD144618
:1040A00013E0701C86B22546194606E008782F7882
:1040B000B84200D004E06D1C491C08780028F5D1F6
:1040C00000BF087800B903E0641C20780028E8D11C
:1040D00000BF3046E2E72DE9F04100270025F6A1B8
:1040E000F748FFF7D1FF8046B8F1000F41D000BF7D
:1040F000F3484044861D00BF16F8014B2C2C03D119
:10410000781CC7B200252EE0092F27D2DFE807F080
:1041100005080B0F12161A1E2200EA4844551EE02D
:10412000E848C4721BE0E7480C30445517E0E54806
:10413000847514E0E3481730445510E0E14880F8F6
:1041400022400CE0DF482330445508E0DD482930A8
:10415000445504E0DB482F30445500E000BF00BF69
:10416000681CC5B200BF00BF2A2C02D0D6488642C8
:10417000C2D3BDE8F08110B52DED108B88B0D148C9
:10418000407B3038CF49097B303901EB810100EBAE
:10419000410084B2CB49497DA1F1300004F0ECF834
:1041A00041EC1A0B9FEDC90B53EC102B04F003F8F4
:1041B00041EC190BC349097DA1F1300004F0DCF892
:1041C00041EC1B0B9FEDC30B53EC102B03F0F3FFE3
:1041D000CDE90401BB49C97CA1F1300004F0CCF861
:1041E00041EC1D0B9FEDBD0B53EC102B03F0E3FFD7
:1041F00041EC1B0BB349897CA1F1300004F0BCF801
:1042000041EC1E0B9FEDB70B53EC102B03F0D3FFCB
:1042100041EC1D0BAB49497CA1F1300004F0ACF836
:1042200041EC1F0B9FEDB10B53EC102B03F0C3FFC0
:10423000CDE90001A349C97B3039A24A927B303ACB
:1042400002EB820201EB420004F096F841EC1E0BF7
:104250009DED000B53EC102B03F006FF53EC1D2BD0
:10426000CDE902019DED020B51EC100B03F0FCFEB9
:1042700041EC1C0B53EC1B2B03F0F6FE41EC1A0B2C
:104280009DED040B53EC102B03F0EEFE53EC192BB9
:10429000CDE906019DED060B51EC100B03F0E4FE99
:1042A00041EC180B9FED930B53EC102B51EC180BBA
:1042B00003F0F3FF41EC180B204604F06EF841ECDC
:1042C000190B53EC182B03F0CFFE41EC180BB0EE9A
:1042D000480AF0EE680A08B0BDEC108B10BD10B5AE
:1042E0002DED108B88B07748C07D3038642110FBED
:1042F00001F17448007E303800EB800001EB400192
:104300007048407E3038084484B26E4991F82110DC
:10431000A1F1300004F030F89FED6C0B53EC102B42
:1043200003F049FF41EC190B664991F82010A1F107
:10433000300004F021F89FED670B53EC102B03F0D5
:104340003AFFCDE904015F49C97FA1F1300004F0D3
:1043500013F89FED620B53EC102B03F02CFF41EC94
:104360001B0B5849897FA1F1300004F005F89FED3F
:104370005D0B53EC102B03F01EFF41EC1D0B51495C
:10438000497FA1F1300003F0F7FF9FED580B53EC8C
:10439000102B03F010FFCDE900014A49C97E3039E6
:1043A000484A927E303A02EB820201EB420003F06F
:1043B000E3FF9DED000B53EC102B03F055FE53EC87
:1043C0001D2BCDE902019DED020B51EC100B03F00A
:1043D0004BFE53EC1B2B03F047FE9DED040B53ECFF
:1043E000102B03F041FE53EC192BCDE906019DED96
:1043F000060B51EC100B03F037FE41EC180B9FED50
:104400003D0B53EC102B51EC180B03F046FF41EC25
:10441000180B204603F0C1FF53EC182B03F024FEC9
:1044200041EC180BB0EE480AF0EE680A08B0BDEC9B
:10443000108B10BD70B52DED068B00259FED2F0B59
:10444000B0EE408AF0EE608A002429E01D48233057
:10445000005D2E281CD01B482330005DC0B11949D7
:104460002331095DA1F1300003F086FF41EC190B07
:104470009FED240B53EC102B51EC180B03F09BFE1B
:1044800041EC1A0B53EC192B03F0EEFD41EC180B29
:104490000C482330005D2E2800D12546601CC4B294
:1044A000062CD3DB012D31D0022D3AD0032D43D081
:1044B000042D57D14BE0000024474E524D432C00B1
:1044C000380A00206809002038120020F168E388CB
:1044D000B5F8E43E2D431CEBE2361A3FFCA9F1D2BD
:1044E0004D62503F7B14AE47E17A843F9A99999987
:1044F0009999B93F0000000000004E400000000004
:104500000000000000000000000024409FEDFE0BB2
:1045100053EC102B51EC180B03F0BFFE41EC180BC1
:1045200021E09FEDFB0B53EC102B51EC180B03F02B
:10453000B4FE41EC180B16E09FEDF70B53EC102B7B
:1045400051EC180B03F0A9FE41EC180B0BE01FED2A
:10455000130B53EC102B51EC180B03F09EFE41ECA7
:10456000180B00E000BF00BF9FEDED0B53EC102BCC
:1045700051EC180B03F01FFE41EC190B9FEDEA0BF9
:1045800053EC102B03F089FE41EC180BB0EE480AF7
:10459000F0EE680ABDEC068B70BD70B52DED068B94
:1045A00000251FED2A0BB0EE408AF0EE608A002451
:1045B00025E0DF48005D2E281AD0DD48005DB8B147
:1045C000DB49095DA1F1300003F0D6FE41EC190B87
:1045D0001FED340B53EC102B51EC180B03F0EBFDDB
:1045E00041EC1A0B53EC192B03F03EFD41EC180B78
:1045F000CF48005D2E2800D12546601CC4B2062C91
:10460000D7DB012D06D0022D0FD0032D18D0042D9D
:104610002CD120E09FEDBC0B53EC102B51EC180B70
:1046200003F03BFE41EC180B21E09FEDB90B53EC7E
:10463000102B51EC180B03F030FE41EC180B16E078
:104640009FEDB50B53EC102B51EC180B03F025FE2E
:1046500041EC180B0BE01FED550B53EC102B51ECFC
:10466000180B03F01AFE41EC180B00E000BF00BF6E
:104670009FEDB00B53EC102B51EC180B03F0E4FE44
:1046800009D29FEDAE0B53EC102B51EC180B03F03D
:104690008CFD41EC180BB0EE480AF0EE680ABDEC58
:1046A000068B70BD10B52DED068BFFF714FDFFF7DF
:1046B00062FDA44880ED000BFFF711FEA14880EDDC
:1046C000020BFFF7B7FE9F4880ED180BFFF765FF61
:1046D0009C4880ED1A0B90ED1A1BB0EE410AF0EEEB
:1046E000610A9FED991B53EC112B51EC100B03F059
:1046F000D4FD41EC1A0BB0EE4A0AF0EE6A0A04F05F
:104700006FF8B0EE409AF0EE609A8E4890ED181B6C
:10471000B0EE410AF0EE610A53EC102B51EC190B8C
:1047200003F049FD41EC180B03F0A6FE85498867AC
:10473000084690ED1A1BB0EE410AF0EE610A9FEDBB
:10474000821B53EC112B51EC100B03F0A6FD41EC36
:104750001A0BB0EE4A0AF0EE6A0A04F075FFB0EEEA
:10476000409AF0EE609A774890ED181BB0EE410A3F
:10477000F0EE610A53EC102B51EC190B03F01BFD0A
:1047800041EC180B03F078FE6E49C8676848293879
:10479000C07A412835D1084690F8980080B3084681
:1047A00090ED042BB0EE420AF0EE620A90ED002B81
:1047B000B0EE421AF0EE621A53EC102B51EC110BD2
:1047C00003F0F3FC5F4AC2E90801104690ED062BA6
:1047D000B0EE420AF0EE620A90ED022BB0EE421A01
:1047E000F0EE621A53EC102B51EC110B03F0DDFCD0
:1047F000544AC2E90A014FF480705549088005E027
:10480000FFE74FF480705249891E08804D4890EDB3
:10481000001BB0EE410AF0EE610A1FEDC81B53EC1D
:10482000112B51EC100B03F0F7FD25D0454890ED0E
:10483000021BB0EE410AF0EE610A1FEDD01B53ECF3
:10484000112B51EC100B03F0E7FD15D03848293837
:10485000C07A412810D13B4890F8980060B9394897
:1048600090ED000B80ED040B90ED020B80ED060B3C
:104870000120344981F89800BDEC068B10BD1D2045
:1048800017E0411E334A02EBC10191ED002B1146A6
:1048900001EBC00181ED002B411E2F4A02EBC1014B
:1048A00091ED002B114601EBC00181ED002B411E63
:1048B000C8B20028E5DC274981ED000B264981EDCF
:1048C000001B70472DE9F0412DED0E8BB0EE408AB4
:1048D0009FED220AF0EE408A9FED200A10EE104A6A
:1048E0009FED1E0A10EE105A9FED1C0A10EE106A82
:1048F000144890ED001BB0EE410AF0EE610A9FED06
:10490000121B53EC112B2BE0000000000088C34069
:104910000000000000408F400000000000005940EF
:104920000000006066266740000000C0CCCC0C4050
:104930009109002000000000008066400000000097
:1049400000807640C80800200000006066A64C4049
:104950001A04024038120020281300200000000032
:1049600051EC100B03F099FC41EC1B0BB0EE4B0A21
:10497000F0EE6B0A03F034FFB0EE409AF0EE609A6E
:10498000FE4890ED0A1BB0EE410AF0EE610A9FED81
:10499000FC1B53EC112B51EC100B03F00CFC41EC05
:1049A0001A0B53EC192B03F006FCF74AC2E91A0163
:1049B000F24890ED081BB0EE410AF0EE610A9FED5F
:1049C000F01B53EC112B51EC100B03F0F4FBEE4AEF
:1049D0007832C2E90201EC4890ED202BB0EE421A89
:1049E000F0EE621A90ED1A2BB0EE420AF0EE620A77
:1049F000FFF745FFB3EE0D0A28EE000A10EE101A7D
:104A0000084603F0F6FC41EC190BE04890ED3A2B18
:104A1000B0EE420AF0EE620ADB4890ED1A2BB0EEDF
:104A2000421AF0EE621A53EC102B51EC110B03F00A
:104A3000BCFB41EC1A0B53EC192B03F02EFCD24AB1
:104A4000C2E91C01B3EE0D0A28EE000A10EE101A9E
:104A5000084603F0CEFC41EC190BCD4890ED3A2B03
:104A6000B0EE420AF0EE620AC74890ED202BB0EE9D
:104A7000421AF0EE621A53EC102B51EC110B03F0BA
:104A800094FB41EC1A0B53EC192B03F006FCBE4AC5
:104A90007832C2E90401BF4890ED0E0ABE48D0ED5D
:104AA000000A20EE200ABB48D0ED0F0ABB4890ED6B
:104AB000001A00EE810AB748D0ED100AB84890ED10
:104AC000001A00EE810ADFEDB70A20EE200ADFEDC2
:104AD000B60A80EE201A11EE104AAE4890ED0E0A8A
:104AE000B248D0ED000A20EE200AAA48D0ED0F0A05
:104AF000AF4890ED001A00EE810AA648D0ED100AEA
:104B0000AC4890ED001A10EEC10ADFEDA60A20EEC7
:104B1000200ADFEDA50A80EE201AF0EE418AA648B1
:104B200090ED020ADFEDA50A80EE201A11EE107A50
:104B3000384603F05EFC41EC1E0BB0EE4E0AF0EE80
:104B40006E0A04F081FDB0EE40CAF0EE60CA204665
:104B500003F04FFC41EC1D0B53EC1C2B03F02BFB23
:104B600041EC1A0B944890ED020ADFED940A80EEB6
:104B7000201A11EE107A384603F03BFC41EC1E0B74
:104B8000B0EE4E0AF0EE6E0A03F02AFEB0EE40CA16
:104B9000F0EE60CA18EE900A03F02BFC41EC1D0BFE
:104BA00053EC1C2B03F007FB41EC1B0B53EC1A2BB3
:104BB00003F05AFA41EC190B03F05EFC05467E48FF
:104BC00090ED020ADFED7D0A80EE201A11EE107AD8
:104BD000384603F00EFC41EC1E0BB0EE4E0AF0EE30
:104BE0006E0A03F0FDFDB0EE40CAF0EE60CA20464A
:104BF00003F0FFFB41EC1D0B53EC1C2B03F0DBFA25
:104C000041EC1A0B6C4890ED020ADFED6C0A80EE65
:104C1000201A11EE107A384603F0EBFB41EC1E0B24
:104C2000B0EE4E0AF0EE6E0A04F00EFDB0EE40CA91
:104C3000F0EE60CAB1EE680A10EE100A03F0D9FB7C
:104C400041EC1D0B53EC1C2B03F0B5FA41EC1B0B94
:104C500053EC1A2B03F008FA41EC190B03F00CFC8F
:104C60000646574890ED120ADFED540A80EE201AEE
:104C700011EE107A384603F0BCFB41EC1D0BB0EE90
:104C80004D0AF0EE6D0A04F0DFFCB0EE40BAF0EE33
:104C900060BA304603F0ADFB41EC1C0B53EC1B2B10
:104CA00003F089FA41EC190B454890ED120ADFED4B
:104CB000430A80EE201A11EE107A384603F099FB71
:104CC00041EC1D0BB0EE4D0AF0EE6D0A03F088FDCD
:104CD000B0EE40BAF0EE60BA284603F08AFB41EC31
:104CE0001C0B53EC1B2B03F066FA41EC1A0B53EC34
:104CF000192B03F05AFA244A03C2314890ED120AE4
:104D0000DFED2E0A80EE201A11EE107A384603F0FD
:104D100070FB41EC1D0BB0EE4D0AF0EE6D0A03F096
:104D20005FFDB0EE40BAF0EE60BA304603F061FBD2
:104D300041EC1C0B53EC1B2B03F03DFA41EC190B1F
:104D40001F4890ED120ADFED1D0A80EE201A11EEC9
:104D5000107A384603F04DFB41EC1D0BB0EE4D0AC6
:104D6000F0EE6D0A04F070FCB0EE40BAF0EE60BAFE
:104D7000284603F03EFB41EC1C0B23E0C808002052
:104D80000000008019976541A80900203812002012
:104D90002813002020150020640100206801002055
:104DA0006C01002000007544000080457001002067
:104DB000740100207801002014150020333365426F
:104DC000C414002053EC1B2B03F0F5F941EC1A0B33
:104DD00053EC192B03F048F9FE4AC2E9060118EE1C
:104DE000100A03F006FB41EC1D0BFA4890ED001B86
:104DF000B0EE410AF0EE610A53EC102B51EC1D0BA2
:104E000003F0D9F941EC1C0BF24890ED0C1BB0EE0D
:104E1000410AF0EE610A53EC102B51EC1C0B03F02D
:104E200023F941EC1B0B9FEDEC0B53EC102B03F023
:104E3000C2F941EC190BE74890ED1C1BB0EE410A9A
:104E4000F0EE610A53EC102B9FEDE51B51EC110BBA
:104E500003F0B1F941EC1A0B53EC192B03F004F9F0
:104E6000DC4AC2E90C0118EE100A03F0C2FA41EC68
:104E7000190BD84890ED061BB0EE410AF0EE610A1E
:104E800053EC102B51EC190B03F095F941EC1D0B71
:104E9000D04890ED121BB0EE410AF0EE610A53ECDF
:104EA000102B51EC1D0B03F0DFF841EC1C0B9FEDB8
:104EB000CA0B53EC102B03F07EF941EC1A0BC548DA
:104EC00090ED221BB0EE410AF0EE610A53EC102B7C
:104ED0009FEDC31B51EC110B03F06DF941EC1B0B63
:104EE00053EC1A2B03F0C0F8BA4AC2E91201BDEC28
:104EF0000E8BBDE8F08110B52DED068BBA48007819
:104F000088287CD1B8484078A12878D1B649C9789A
:104F10000906B54A127941EA0241B34A527941EA97
:104F20000221B14A927941EA020003F025FA41ECEC
:104F3000180B9FEDAE0B53EC102B03F0AEF9AD4AFE
:104F4000C2E90C01104690ED002BB0EE420AF0EEE3
:104F5000620A90ED0C2BB0EE421AF0EE621A53EC9E
:104F6000102B51EC110B03F020F941EC180B1FED45
:104F70007C0B53EC102B03F01EF99E4AC2E9120180
:104F80009949C9790906984A127A41EA0241964A32
:104F9000527A41EA0221944A927A41EA020003F0ED
:104FA000EBF941EC180B9FED910B53EC102B03F038
:104FB00074F9904AC2E90E01104690ED001BB0EE64
:104FC000410AF0EE610A9FED8C1B53EC112B51EC62
:104FD000100B03F062F941EC1A0BB0EE4A0AF0EE46
:104FE0006A0A03F0FDFBB0EE408AF0EE608A814869
:104FF00090ED022BB0EE420AF0EE620A00E01CE0F7
:1050000090ED0E2BB0EE421AF0EE621A53EC102B1C
:1050100051EC110B03F0C9F841EC1A0B1FEDA80B72
:1050200053EC102B03F0C7F841EC190B53EC182B81
:1050300003F0C1F86F4AC2E91001BDEC068B10BD48
:1050400010B52DED108B84B0B0EE408A9FED6C0A48
:10505000F0EE408A9FED6A0AB0EE40FA62480078AE
:1050600088287DD160484078A128FAD15E48C07D6B
:10507000012804D002280BD003281BD111E09FED9A
:10508000600AF0EE408A9FED5E0AB0EE40FA1AE048
:105090009FED5C0AF0EE408A9FED5B0AB0EE40FAAD
:1050A00011E09FED580AF0EE408A9FED580AB0EEED
:1050B00040FA08E09FED520AF0EE408A9FED500A58
:1050C000B0EE40FA00BF00BF514890ED000AB4EEC8
:1050D000E80AF1EE10FA08DD90ED000AF2EE040A9B
:1050E00030EE600A80ED000A0FE0494890ED000ABA
:1050F000B4EEE80AF1EE10FA07D290ED000AF2EEF3
:10510000040A30EE200A80ED000A424890ED000AC1
:10511000B4EECF0AF1EE10FA08DD90ED000AF2EEDF
:10512000040A30EE600A80ED000A0FE0394890ED85
:10513000000AB4EECF0AF1EE10FA07D290ED000AA1
:10514000F2EE040A30EE200A80ED000A324890EDBB
:10515000120A5FEDE60A80EE201A11EE104A00E016
:10516000C6E3204603F045F941EC1D0BB0EE4D0AB5
:10517000F0EE6D0A04F068FAB0EE40BAF0EE60BAF4
:105180002648B0F9020000EE100AB8EEC00ADFEDC2
:10519000240A60EE200A9FED231A80EE810A20EE99
:1051A000080A10EE104A204603F023F941EC1C0BCC
:1051B00053EC1B2B02F0FFFF41EC1E0B164890ED49
:1051C000120ADFED190A80EE201A11EE104A20466D
:1051D0002CE00000A8090020000000A09999E93FF8
:1051E000000000A09999C93FD405002000000000EC
:1051F000D0126341C80800200000006066A64C4041
:10520000000000000000FA440000FAC400007AC563
:105210004001002044010020C4140020F4050020B7
:1052200000007A43000025443333654203F0E1F87F
:1052300041EC1D0BB0EE4D0AF0EE6D0A03F0D0FA12
:10524000B0EE40BAF0EE60BAFE48B0F9000000EEF1
:10525000100AB8EEC00A5FED0E0A60EE200A1FEDDC
:105260000F1A80EE810A20EE080A10EE104A20463E
:1052700003F0BFF841EC1C0B53EC1B2B02F09BFF1F
:1052800041EC1A0B53EC1E2B02F08FFF41EC190B73
:10529000ED4890ED221BB0EE410AF0EE610A53ECAE
:1052A000102B51EC190B02F0DFFEE74A6032C2E925
:1052B0000A01E64890ED120A5FED250A80EE201AF9
:1052C00011EE104A204603F094F841EC1D0BB0EEAD
:1052D0004D0AF0EE6D0A04F0B7F9B0EE40BAF0EE08
:1052E00060BAD848B0F9000000EE100AB8EEC00A63
:1052F0005FED350A60EE200A1FED361A80EE810A56
:1053000020EE080A10EE104A204603F072F841EC35
:105310001C0B53EC1B2B02F04EFF41EC190BCB483E
:1053200090ED120A5FED400A80EE201A11EE104A4D
:10533000204603F05EF841EC1D0BB0EE4D0AF0EE96
:105340006D0A03F04DFAB0EE40BAF0EE60BABD4817
:10535000B0F9020000EE100AB8EEC00A5FED500A84
:1053600060EE200A1FED511A80EE810A20EE080A35
:1053700010EE104A204603F03CF841EC1C0B53ECB5
:105380001B2B02F018FF41EC1A0B53EC192B02F007
:105390006BFE41EC1E0BAC4890ED2E1BB0EE410AAB
:1053A000F0EE610A53EC102B51EC1E0B02F05CFE88
:1053B000A54A9032C2E90A01A549C9780906A44A5A
:1053C000127941EA0241A24A527941EA0221A04AF5
:1053D000927941EA020002F0CFFF41EC190B1FED78
:1053E0007D0B53EC102B02F058FF9A4AC2E90C01D6
:1053F0009948006802F0FDFF41EC1B0B954890EDC9
:10540000042BB0EE420AF0EE620A90ED0C2BB0EEE7
:10541000421AF0EE621A53EC102B51EC110B02F011
:10542000C4FE41EC1E0B9FED8D0B53EC102B02F0D4
:10543000C2FE41EC1D0B874890ED121BB0EE410AF5
:10544000F0EE610A53EC102B51EC1D0B02F0ADFE97
:1054500041EC1C0B53EC1B2B02F006FE41EC1A0B2B
:10546000794890ED2E1BB0EE410AF0EE610A53EC44
:10547000102B51EC1A0B02F0F7FD41EC190B02F066
:10548000FBFF7149C1F890007149C9790906704A5A
:10549000127A41EA02416E4A527A41EA02216C4A8A
:1054A000927A41EA020002F067FF41EC190B1FED0E
:1054B000B10B53EC102B02F0F0FE664AC2E90E016C
:1054C0006848006802F095FF41EC1A0B614890EDC6
:1054D000001BB0EE410AF0EE610A1FEDB91B53EC60
:1054E000112B51EC100B02F0D8FE41EC1D0BB0EE6D
:1054F0004D0AF0EE6D0A03F073F9B0EE40CAF0EE1B
:1055000060CA544890ED062BB0EE420AF0EE620AF3
:1055100090ED0E2BB0EE421AF0EE621A53EC102B07
:1055200051EC110B02F041FE41EC1D0B9FED4B0BBA
:1055300053EC102B02F03FFE41EC1E0B53EC1C2BE6
:1055400002F039FECDE90001424890ED101BB0EEAB
:10555000410AF0EE610A53EC102B9DED001B51EC5B
:10556000110B02F022FE41EC1B0B53EC1A2B02F044
:105570007BFDCDE90201344890ED221BB0EE410ADB
:10558000F0EE610A53EC102B9DED021B51EC110B58
:1055900002F06AFD41EC190B02F06EFF2A49086621
:1055A0002B48007B2A49C97A40EA012000EE100A04
:1055B000B8EEC00A274880ED250A90ED250ADFEDF8
:1055C0002A0AB4EEE00AF1EE10FA07DD90ED250AA2
:1055D000DFED260A30EE600A80ED250A1C48807B4C
:1055E0001B49497B40EA012000EE100AB8EEC00AD0
:1055F000184880ED200A1648007C1549C97B40EA0E
:10560000012000EE100AB8EEC00A124880ED210A0F
:105610000F48807C0E49497C40EA012000EE100AC8
:10562000B8EEC00A0B4880ED220A90ED200ADFEDAB
:105630000E0AB4EEE00AF1EE10FA1FDD90ED200A3A
:1056400016E00000F405002000080020C41400202B
:10565000D4050020C808002044010020000000807C
:10566000199765414001002000FEFF4600FF7F477B
:105670005FED020A30EE600A80ED200AF94890EDF5
:10568000210A5FED070AB4EEE00AF1EE10FA07DD39
:1056900090ED210A5FED0B0A30EE600A80ED210AE1
:1056A000F04890ED220A5FED100AB4EEE00AF1EE48
:1056B00010FA07DD90ED220A5FED140A30EE600A61
:1056C00080ED220AE74890ED200AF2EE040A80EE0F
:1056D000201ABBEE040AB4EEC01AF1EE10FA02D2A0
:1056E000BBEE040A17E0DF4890ED200AF2EE040A50
:1056F00080EE201AB3EE040AB4EEC01AF1EE10FAEE
:1057000002DDB3EE040A06E0D648D0ED200AB2EE80
:10571000041A80EE810AD34880ED200AD0ED210AD8
:10572000B2EE041A80EE810AFBEE040AB4EEE00A3F
:10573000F1EE10FA02D2BBEE040A17E0C94890ED70
:10574000210AB2EE041AC0EE010AB3EE040AF4EE26
:10575000C00AF1EE10FA02DDB3EE040A06E0C14819
:10576000D0ED210AB2EE041A80EE810ABD4880ED28
:10577000210AD0ED220AB2EE041A80EE810ADFED92
:10578000BA0AB4EEE00AF1EE10FA02D29FEDB60AC0
:1057900017E0B44890ED220AB2EE041AC0EE010AF6
:1057A0009FEDB20AF4EEC00AF1EE10FA02DD9FEDB1
:1057B000AF0A06E0AB48D0ED220AB2EE041A80EE42
:1057C000810AA84880ED220AA948007DA849C97C21
:1057D00040EA012000EE100AB8EEC00AA14880EDB0
:1057E000240AA348807DA249497D40EA012000EEB9
:1057F000100AB8EEC00A9B4880ED230A90ED240AF7
:105800005FED670AB4EEE00AF1EE10FA07DD90ED05
:10581000240A5FED6A0A30EE600A80ED240A91489E
:1058200090ED230A5FED700AB4EEE00AF1EE10FA93
:1058300007DD90ED230A5FED730A30EE600A80ED1C
:10584000230A8848D0ED240AB2EE041A80EE810AB9
:10585000DFED880AB4EEE00AF1EE10FA02D29FED15
:10586000850A17E07F48D0ED240AB2EE041A80EED4
:10587000810ADFED810AB4EEE00AF1EE10FA02DDF2
:105880009FED7D0A06E07748D0ED240AB2EE041AB7
:1058900080EE810A734880ED240A90ED230AF2EE2F
:1058A000040A80EE201A9FED730AB4EEC01AF1EEDE
:1058B00010FA02D29FED6F0A17E06A48D0ED230A72
:1058C000B2EE041A80EE810ADFED6B0AB4EEE00A54
:1058D000F1EE10FA02DD9FED680A06E06148D0EDB6
:1058E000230AB2EE041A80EE810A5E4880ED230A94
:1058F00004B0BDEC108B10BD10B52DED108B82B037
:105900005E4890ED001BB0EE410AF0EE610A51ECEA
:10591000100B02F0B1FD08EE100AB0EE480AFDF7D8
:1059200072FF8DED010A554890ED061BB0EE410A5D
:10593000F0EE610A51EC100B02F09EFD08EE100A29
:10594000B0EE480AFEF764F88DED000A4C48408935
:10595000012803D04A484089022875D14848408927
:10596000022810D19FED470A3E4880ED200A9FEDA6
:10597000450A80ED210A9FED430A80ED240A9FED40
:10598000410A80ED230A404890ED1D0A10EE101ADE
:10599000084602F02EFD41EC190B384890ED0C1B27
:1059A000B0EE410AF0EE610A53EC102B51EC190BEA
:1059B00002F0FBFB41EC180B02F05EFD324948603F
:1059C000084690ED290A10EE101A084602F011FD63
:1059D00041EC190B294890ED121BB0EE410AF0EE94
:1059E000610A53EC102B51EC190B02F0DEFB41EC79
:1059F000180B02F041FD24494863084690ED010A66
:105A0000D0ED060A20EE200A80ED020AD0ED080A49
:105A10009DED010AB1EE400A20EE800A80ED040AF5
:105A200090ED020AD0ED040A30EE200A80ED050A5E
:105A300090ED050AFAEE0E0AB4EEE00AF1EE10FA65
:105A400003D2BAEE0E0A24E07CE10F4890ED050A7D
:105A5000F2EE0E0AB4EEE00AF1EE10FA16DDB2EE46
:105A60000E0A16E0C8080020000034C300003443CA
:105A7000D4050020000048C300004843A8090020C6
:105A8000F40500200000000000080020FE4890ED12
:105A9000050AFD4880ED050A90ED0D0AD0ED120AC9
:105AA00020EE200A80ED0E0AD0ED140A9DED000ACA
:105AB000B1EE400A20EE800A80ED100A90ED0E0A49
:105AC000D0ED100A30EE200A80ED110A90ED110A97
:105AD000FAEE0E0AB4EEE00AF1EE10FA02D2BAEED5
